:100000000C942A000C94A6050C94A6050C94A60545
:100010000C94A6050C94A6050C94A6050C94A605B4
:100020000C94A6050C94A6050C94A6050C94A605A4
:100030000C94A6050C94A6050C94A6050C94A60594
:100040000C94A6050C94A6050C94A6050C94A60584
:100050000C94A60511241FBECFE5D8E0DEBFCDBFAE
:10006000E4E5F0E040E017C0B591A5913591259108
:10007000059107FD0CC095918591EF01F92FE82FAF
:1000800005900D92A217B307D9F7FE0104C01D9287
:10009000A217B307E1F7E435F40731F70E949005A2
:0800A0000C949B05F894FFCFBE
:1000A800CF93DF9300D000D0CDB7DEB79A83898392
:1000B8007C836B838B819C81009719F0019771F089
:1000C80019C08AE390E02AE330E0F9012081322F59
:1000D800298120952323FC0120830CC08AE390E02A
:1000E8002AE330E0F9012081322F2981232BFC01FA
:1000F8002083000000000F900F900F900F90DF9169
:10010800CF910895CF93DF9300D000D0CDB7DEB75D
:100118009A8389837C836B838B819C81009719F0F8
:10012800019771F019C087E390E027E330E0F90107
:100138002081322F298120952323FC0120830CC0A4
:1001480087E390E027E330E0F9012081322F29810D
:10015800232BFC012083000000000F900F900F90CC
:100168000F90DF91CF910895CF93DF9300D000D007
:10017800CDB7DEB79A8389837C836B838B819C811F
:10018800009719F0019771F019C084E390E024E317
:1001980030E0F9012081322F298120952323FC01A9
:1001A80020830CC084E390E024E330E0F90120814F
:1001B800322F2981232BFC012083000000000F909F
:1001C8000F900F900F90DF91CF910895CF93DF9309
:1001D80000D000D0CDB7DEB79A8389837C836B8348
:1001E8008B819C81009719F0019771F019C081E308
:1001F80090E021E330E0F9012081322F2981209518
:100208002323FC0120830CC081E390E021E330E04C
:10021800F9012081322F2981232BFC012083000042
:1002280000000F900F900F900F90DF91CF910895DD
:10023800CF93DF9300D000D0CDB7DEB79A83898300
:100248007C836B838B819C81009719F00197A9F0BF
:1002580027C08AE390E02AE330E0F9012081422FA9
:1002680021E030E0098002C0220F331F0A94E2F730
:1002780020952423FC01208313C08AE390E02AE31D
:1002880030E0F9012081422F21E030E0098002C0EE
:10029800220F331F0A94E2F7242BFC01208300006D
:1002A80000000F900F900F900F90DF91CF9108955D
:1002B800CF93DF9300D000D0CDB7DEB79A83898380
:1002C8007C836B838B819C81009719F00197A9F03F
:1002D80027C087E390E027E330E0F9012081422F2F
:1002E80021E030E0098002C0220F331F0A94E2F7B0
:1002F80020952423FC01208313C087E390E027E3A3
:1003080030E0F9012081422F21E030E0098002C06D
:10031800220F331F0A94E2F7242BFC0120830000EC
:1003280000000F900F900F900F90DF91CF910895DC
:10033800CF93DF9300D000D0CDB7DEB79A838983FF
:100348007C836B838B819C81009719F00197A9F0BE
:1003580027C084E390E024E330E0F9012081422FB4
:1003680021E030E0098002C0220F331F0A94E2F72F
:1003780020952423FC01208313C084E390E024E328
:1003880030E0F9012081422F21E030E0098002C0ED
:10039800220F331F0A94E2F7242BFC01208300006C
:1003A80000000F900F900F900F90DF91CF9108955C
:1003B800CF93DF9300D000D0CDB7DEB79A8389837F
:1003C8007C836B838B819C81009719F00197A9F03E
:1003D80027C081E390E021E330E0F9012081422F3A
:1003E80021E030E0098002C0220F331F0A94E2F7AF
:1003F80020952423FC01208313C081E390E021E3AE
:1004080030E0F9012081422F21E030E0098002C06C
:10041800220F331F0A94E2F7242BFC0120830000EB
:1004280000000F900F900F900F90DF91CF910895DB
:10043800CF93DF9300D0CDB7DEB79A8389838981C4
:100448009A81009719F0019731F00BC08BE390E087
:10045800FC01108206C08BE390E02FEFFC012083A3
:10046800000000000F900F90DF91CF910895CF9377
:10047800DF9300D0CDB7DEB79A83898389819A81CB
:10048800009719F0019731F00BC088E390E0FC0168
:10049800108206C088E390E02FEFFC012083000063
:1004A80000000F900F90DF91CF910895CF93DF93C5
:1004B80000D0CDB7DEB79A83898389819A81009766
:1004C80019F0019731F00BC085E390E0FC01108230
:1004D80006C085E390E02FEFFC01208300000000B8
:1004E8000F900F90DF91CF910895CF93DF9300D0B5
:1004F800CDB7DEB79A83898389819A81009719F0ED
:10050800019731F00BC082E390E0FC01108206C035
:1005180082E390E02FEFFC012083000000000F90A1
:100528000F90DF91CF910895CF93DF9300D0CDB78F
:10053800DEB79A8389838BE390E02981FC012083CD
:1005480000000F900F90DF91CF910895CF93DF9324
:1005580000D0CDB7DEB79A83898388E390E02981FC
:10056800FC01208300000F900F90DF91CF91089538
:10057800CF93DF9300D0CDB7DEB79A83898385E325
:1005880090E02981FC01208300000F900F90DF91FB
:10059800CF910895CF93DF9300D0CDB7DEB79A837C
:1005A800898382E390E02981FC01208300000F9079
:1005B8000F90DF91CF910895CF93DF9300D000D0B3
:1005C800CDB7DEB79A8389837C836B838B819C81CB
:1005D8000097B1F0019709F027C08BE390E02BE377
:1005E80030E0F9012081422F21E030E0098002C08B
:1005F800220F331F0A94E2F7242BFC01208314C036
:100608008BE390E02BE330E0F9012081422F21E0D9
:1006180030E0098002C0220F331F0A94E2F72095C8
:100628002423FC012083000000000F900F900F90FE
:100638000F90DF91CF910895CF93DF9300D000D032
:10064800CDB7DEB79A8389837C836B838B819C814A
:100658000097B1F0019709F027C088E390E028E3FC
:1006680030E0F9012081422F21E030E0098002C00A
:10067800220F331F0A94E2F7242BFC01208314C0B5
:1006880088E390E028E330E0F9012081422F21E05F
:1006980030E0098002C0220F331F0A94E2F7209548
:1006A8002423FC012083000000000F900F900F907E
:1006B8000F90DF91CF910895CF93DF9300D000D0B2
:1006C800CDB7DEB79A8389837C836B838B819C81CA
:1006D8000097B1F0019709F027C085E390E025E382
:1006E80030E0F9012081422F21E030E0098002C08A
:1006F800220F331F0A94E2F7242BFC01208314C035
:1007080085E390E025E330E0F9012081422F21E0E4
:1007180030E0098002C0220F331F0A94E2F72095C7
:100728002423FC012083000000000F900F900F90FD
:100738000F90DF91CF910895CF93DF9300D000D031
:10074800CDB7DEB79A8389837C836B838B819C8149
:100758000097B1F0019709F027C082E390E022E307
:1007680030E0F9012081422F21E030E0098002C009
:10077800220F331F0A94E2F7242BFC01208314C0B4
:1007880082E390E022E330E0F9012081422F21E06A
:1007980030E0098002C0220F331F0A94E2F7209547
:1007A8002423FC012083000000000F900F900F907D
:1007B8000F90DF91CF910895CF93DF93CDB7DEB738
:1007C80089E390E0FC018081DF91CF910895CF9378
:1007D800DF93CDB7DEB786E390E0FC018081DF913F
:1007E800CF910895CF93DF93CDB7DEB783E390E041
:1007F800FC018081DF91CF910895CF93DF93CDB72E
:10080800DEB780E390E0FC018081DF91CF9108950D
:10081800CF93DF9300D0CDB7DEB79A83898389E37E
:1008280090E0FC018081282F81E090E0098002C0DF
:10083800880F991F0A94E2F782230F900F90DF9197
:10084800CF910895CF93DF9300D0CDB7DEB79A83C9
:10085800898386E390E0FC018081282F81E090E085
:10086800098002C0880F991F0A94E2F782230F902B
:100878000F90DF91CF910895CF93DF9300D0CDB73C
:10088800DEB79A83898383E390E0FC018081282F77
:1008980081E090E0098002C0880F991F0A94E2F76E
:1008A80082230F900F90DF91CF910895CF93DF931C
:1008B80000D0CDB7DEB79A83898380E390E0FC014E
:1008C8008081282F81E090E0098002C0880F991F5D
:1008D8000A94E2F782230F900F90DF91CF91089549
:1008E800CF93DF93CDB7DEB761E070E084E890E0A6
:1008F8000E94B80061E070E083E090E00E94DC01B3
:100908000000DF91CF910895CF93DF9300D0CDB74A
:10091800DEB79A83898389819A8183309105A1F012
:100928008730910551F0029709F015C061E070E039
:1009380082E090E00E9460030EC061E070E087E012
:1009480090E00E94600307C061E070E083E090E0FF
:100958000E94A003000000000F900F90DF91CF913C
:100968000895CF93DF9300D0CDB7DEB79A838983FC
:1009780089819A8183309105A1F08730910551F0E2
:10098800029709F015C060E070E082E090E00E94F4
:1009980060030EC060E070E087E090E00E946003B2
:1009A80007C060E070E083E090E00E94A0030000D0
:0C09B80000000F900F90DF91CF91089588
:1009C400CF93DF93CDB7DEB760E070E080E090E0D6
:1009D4000E945C0160E070E086E090E00E94DC012F
:1009E40060E070E082E090E00E94DC010000DF91B2
:1009F400CF910895CF93DF930F92CDB7DEB789835C
:100A04008981082E000C990B0E940C040F90DF9131
:100A1400CF910895CF93DF930F92CDB7DEB789833B
:100A24008981082E000C990B0E9426040F90DF91F7
:100A3400CF910895CF93DF930F92CDB7DEB789831B
:100A44008981082E000C990B0E9440040F90DF91BD
:100A5400CF910895CF93DF930F92CDB7DEB78983FB
:100A64008981082E000C990B0E945A040F90DF9183
:040A7400CF91089581
:100A7800CF93DF93CDB7DEB761E070E083E090E01D
:100A88000E941C010000DF91CF910895CF93DF935E
:100A9800CDB7DEB761E070E082E090E00E941C0113
:100AA8000000DF91CF910895CF93DF93CDB7DEB7E4
:100AB80061E070E083E090E00E94E0020000DF91D6
:100AC800CF910895CF93DF93CDB7DEB760E070E0A4
:100AD80083E090E00E94E0020000DF91CF9108954A
:100AE800CF93DF93CDB7DEB761E070E082E090E0AE
:100AF8000E94E0020000DF91CF910895CF93DF9329
:100B0800CDB7DEB760E070E082E090E00E94E002DE
:080B18000000DF91CF91089568
:100B2000CF93DF93CDB7DEB70E9474040E94E20436
:060B30000E943C05FFCF0E
:100B3600EC010E94AB050E94AA05CE010E94AC05FD
:060B4600CE010E94A8058B
:040B4C000C94000005
:040B50000E945200AD
:020B5400089502
:020B5600089500
:020B58000895FE
:00000001FF
