:100000000C942A000C9482010C9482010C948201BD
:100010000C9482010C9482010C9482010C94820154
:100020000C9482010C9482010C9482010C94820144
:100030000C9482010C9482010C9482010C94820134
:100040000C9482010C9482010C9482010C94820124
:100050000C94820111241FBECFE5D8E0DEBFCDBFD6
:0C0060000E940D010C947701F894FFCF72
:10006C006115710521F06130710579F0089541B386
:10007C0021E030E0B90102C0660F771F8A95E2F7E4
:10008C00CB018095842381BB089541B321E030E0FE
:10009C00B90102C0660F771F8A95E2F7CB01842B5A
:0400AC0081BB089577
:1000B0006115710581F061307105D1F448B321E01B
:1000C00030E0B90102C0660F771F8A95E2F7CB01D5
:1000D000842B88BB089548B321E030E0B90102C009
:1000E000660F771F8A95E2F7CB018095842388BB42
:0200F000089571
:1000F2006115710581F061307105D1F445B321E0DC
:1001020030E0B90102C0660F771F8A95E2F7CB0192
:10011200842B85BB089545B321E030E0B90102C0CC
:10012200660F771F8A95E2F7CB018095842385BB02
:0201320008952E
:100134006115710581F061307105D1F442B321E09C
:1001440030E0B90102C0660F771F8A95E2F7CB0150
:10015400842B82BB089542B321E030E0B90102C090
:10016400660F771F8A95E2F7CB018095842382BBC3
:020174000895EC
:100176008330910599F08730910549F00297A1F4F3
:1001860061E070E082E090E00E947900089561E00D
:1001960070E087E090E00E947900089561E070E0E9
:0A01A60083E090E00E949A000895A3
:1001B0008330910599F08730910549F00297A1F4B9
:1001C00060E070E082E090E00E947900089560E0D5
:1001D00070E087E090E00E947900089560E070E0B0
:0A01E00083E090E00E949A00089569
:1001EA008230910579F08630910539F0892B79F4BE
:1001FA0080E090E00E944101089586E090E00E942C
:10020A004F01089582E090E00E944F0108950895F9
:10021A000E945D010E946A0186E090E00E94F5005A
:10022A00892B29F082E090E00E94BB0004C082E0A2
:08023A0090E00E94D800FFCF04
:100242006115710521F06130710531F0089594B3A3
:100252008095892384BB089594B3892B84BB089528
:100262006115710521F06130710531F0089591B386
:100272008095892381BB089591B3892B81BB089511
:1002820028B341E050E0BA0102C0660F771F8A9599
:0C029200E2F7CB0130E0822393230895B3
:10029E0022B341E050E0BA0102C0660F771F8A9583
:0C02AE00E2F7CB0130E082239323089597
:1002BA0061E070E084E890E00E94210161E070E072
:0A02CA0083E090E00E9436000895E2
:1002D40060E070E084E490E00E94310160E070E04E
:0A02E40080E090E00E9458000895A9
:1002EE00EC010E9487010E948601CE010E948801C6
:0602FE00CE010E94840104
:040304000C94000055
:040308000E9434001B
:02030C00089552
:02030E00089550
:0203100008954E
:00000001FF
