:100000000C942E000C9434050C9434050C94340597
:100010000C9434050C9434050C9434050C9434057C
:100020000C9434050C9434050C9434050C9434056C
:100030000C9434050C9434050C9434050C9434055C
:100040000C9434050C9434050C9434050C9434054C
:100050000C9434050060006B000A820011241FBE5E
:10006000CFE5D8E0DEBFCDBFE4E5F0E040E017C06B
:10007000B591A59135912591059107FD0CC09591FC
:100080008591EF01F92FE82F05900D92A217B30784
:10009000D9F7FE0104C01D92A217B307E1F7EB35B3
:1000A000F40731F70E94FB040C94E204F894FFCFAC
:1000B000CF93DF930E944B030E9424050E944601C8
:1000C000813309F046C047E060E080E00E946E04A2
:1000D0000E94360583EF91E00197F1F700C0000020
:1000E00086B10E94CB04C4B1D5B180E690E00E94F5
:1000F000A004BE0180E090E00E940E0320E030E00A
:1001000040EA50E40E942D0520E030EC4FE754E433
:100110000E94290520E030E04AE754E40E942D05C2
:100120002DEC3CEC4CEC5DE30E942D050E94020599
:10013000CB010E94160488E690E00E94A0049FEB89
:1001400027E289E0915020408040E1F700C00000A4
:1001500091C0823309F046C047E060E081E00E9430
:100160006E040E94360583EF91E00197F1F700C01D
:10017000000086B10E94CB04C4B1D5B180E690E006
:100180000E94A004BE0180E090E00E940E0320E0E7
:1001900030E040EA50E40E942D0520E030EC4FE7CB
:1001A00054E40E94290520E030E04AE754E40E942C
:1001B0002D052DEC3CEC4CEC5DE30E942D050E94DE
:1001C0000205CB010E94160488E690E00E94A0047C
:1001D0009FEB27E289E0915020408040E1F700C08A
:1001E000000048C0833309F045C047E060E082E08A
:1001F0000E946E040E94360583EF91E00197F1F7AB
:1002000000C0000086B10E94CB04C4B1D5B180E625
:1002100090E00E94A004BE0180E090E00E940E03E6
:1002200020E030E040EA50E40E942D0520E030EC70
:100230004FE754E40E94290520E030E04AE754E407
:100240000E942D052DEC3CEC4CEC5DE30E942D054D
:100250000E940205CB010E94160488E690E00E94ED
:10026000A0049FEB27E289E0915020408040E1F715
:1002700000C000009FEF2AE187EB915020408040B2
:0C028000E1F700C00000DF91CF9108956D
:10028C00CF92DF92EF92FF920F931F93CF93DF9356
:10029C0000D00F92CDB7DEB7CC24C394D12C01E0A3
:1002AC0010E01B821A8207C08A819B8101969B8376
:1002BC008A830F5F1F4FEA80FB80C6010A8002C051
:1002CC00880F991F0A94E2F7809588BB95E39A955D
:1002DC00F1F700000E943A05807F803F09F43FC08F
:1002EC002FEF89EF90E0215080409040E1F700C063
:1002FC0000000E943A05807F8983803F81F10E9433
:10030C003A05807F803FD9F7E114F10451F429813B
:10031C00203E51F1203D51F1203B51F1203721F687
:10032C0029C081E0E816F10459F49981903E21F13D
:10033C00903D21F1903B21F1903709F0B5CF22C0CF
:10034C0022E0E216F10459F48981803EE9F0803D07
:10035C00E9F0803BE9F0803709F0A1CF1BC00330F6
:10036C0011050CF4A1CF9BCF81E315C084E313C01E
:10037C0087E311C08AE20FC082E30DC085E30BC096
:10038C0088E309C080E307C083E305C086E303C0AC
:10039C0089E301C083E20F900F900F90DF91CF9112
:0E03AC001F910F91FF90EF90DF90CF9008957A
:1003BA0010C00E94100558F00E94090540F029F467
:1003CA005F3F29F00C941E0551110C9418050C94EA
:1003DA0031050E94D30368F39923B1F3552391F3AE
:1003EA00951B550BBB27AA2762177307840738F09A
:1003FA009F5F5F4F220F331F441FAA1FA9F335D0F7
:10040A000E2E3AF0E0E832D091505040E695001CAA
:10041A00CAF72BD0FE2F29D0660F771F881FBB1F64
:10042A00261737074807AB07B0E809F0BB0B802D42
:10043A00BF01FF2793585F4F3AF09E3F510578F06E
:10044A000C941E050C9418055F3FE4F3983ED4F310
:10045A00869577956795B795F7959F5FC9F7880F42
:10046A00911D9695879597F90895E1E0660F771F94
:10047A00881FBB1F621773078407BA0720F0621B25
:0E048A00730B840BBA0BEE1F88F7E0950895F4
:100498000FC00E94090538F00E94100520F095232E
:1004A80011F00C941E050C94310511240C941805B8
:1004B8000E94D30370F3959FC1F3950F50E0551F29
:1004C800629FF001729FBB27F00DB11D639FAA27A1
:1004D800F00DB11DAA1F649F6627B00DA11D661FF0
:1004E800829F2227B00DA11D621F739FB00DA11D11
:1004F800621F839FA00D611D221F749F3327A00DCB
:10050800611D231F849F600D211D822F762F6A2F66
:1005180011249F5750409AF0F1F088234AF0EE0FCB
:10052800FF1FBB1F661F771F881F91505040A9F7F8
:100538009E3F510580F00C941E050C9418055F3FF2
:10054800E4F3983ED4F3869577956795B795F79534
:10055800E7959F5FC1F7FE2B880F911D96958795AC
:0405680097F9089562
:10056C00CF92DF92EF92FF920F931F93CF93DF9373
:10057C009C01EB016A01009721F480E388831982C6
:10058C003EC0992354F45AE0C516D10441F4319578
:10059C002195310911F141E003C040E001C040E078
:1005AC008E01C901B6010E9434047801AFEFEA1A3A
:1005BC00FA0AF7018A30910514F4805D01C0895C58
:1005CC00D8018C93C901B6010E9434049B018701A8
:1005DC00672B39F7442329F001C0FB018DE280839E
:1005EC00319610823197CE17DF0748F4DE018991DE
:1005FC0090819D9380833197CE17DF07C0F3DF91F5
:10060C00CF911F910F91FF90EF90DF90CF900895B5
:10061C00E89409C097FB3EF4909580957095619590
:10062C007F4F8F4F9F4F9923A9F0F92F96E9BB2746
:10063C009395F695879577956795B795F111F8CFC2
:10064C00FAF4BB0F11F460FF1BC06F5F7F4F8F4F2D
:10065C009F4F16C0882311F096E911C0772321F023
:10066C009EE8872F762F05C0662371F096E8862FBB
:10067C0070E060E02AF09A95660F771F881FDAF712
:0A068C00880F9695879597F9089559
:1006960061E070E08FEF90E00E94900461E070E00E
:1006A60080E090E00E94B10361E070E081E090E0BC
:1006B6000E94B10361E070E082E090E00E94B10325
:1006C6002FEF89EF90E0215080409040E1F700C085
:1006D600000060E070E080E090E00E94F50382E0B8
:1006E6000E94AF0488E30E94AF048CE00E94AF042E
:0E06F60081E00E94AF0486E00E94AF040895E8
:100704000E94DB0388F09F5798F0B92F9927B751BF
:10071400B0F0E1F0660F771F881F991F1AF0BA95A1
:10072400C9F714C0B13091F00E941705B1E00895E3
:100734000C941705672F782F8827B85F39F0B93FD5
:10074400CCF3869577956795B395D9F73EF4909554
:0E0754008095709561957F4F8F4F9F4F089550
:100762006115710521F06130710579F0089541B389
:1007720021E030E0B90102C0660F771F8A95E2F7E7
:10078200CB018095842381BB089541B321E030E001
:10079200B90102C0660F771F8A95E2F7CB01842B5D
:0407A20081BB08957A
:1007A60057FD9058440F551F59F05F3F71F047951C
:1007B600880F97FB991F61F09F3F79F08795089501
:1007C600121613061406551FF2CF4695F1DF08C020
:1007D600161617061806991FF1CF8695710561053D
:0407E60008940895D6
:1007EA006115710581F061307105D1F442B321E0E0
:1007FA0030E0B90102C0660F771F8A95E2F7CB0194
:10080A00842B82BB089542B321E030E0B90102C0D3
:10081A00660F771F8A95E2F7CB018095842382BB06
:02082A0008952F
:10082C00CF93DF93CDB7DEB72B970FB6F894DEBF1F
:10083C000FBECDBF4AE050E0BE016F5F7F4F0E94FC
:10084C00B602CE0101960E94A0042B960FB6F89426
:0C085C00DEBF0FBECDBFDF91CF9108952D
:1008680097FB072E16F4009407D077FD09D00E9455
:10087800480407FC05D03EF4909581959F4F089554
:08088800709561957F4F089502
:10089000AA1BBB1B51E107C0AA1FBB1FA617B707A6
:1008A00010F0A61BB70B881F991F5A95A9F78095C2
:0808B0009095BC01CD010895F3
:1008B800929A87EC90E00197F1F700C000009298B7
:1008C8009FEF29EF80E0915020408040E1F700C081
:0408D800000008957F
:1008DC00CF93DF93D62FC42F0E94ED048D2F0E944F
:1008EC00D7048C2F0E94F4040E943805DF91CF911D
:0208FC0008955D
:1008FE00092E0394000C11F4882352F0BB0F40F420
:10090E00BF2B11F460FF04C06F5F7F4F8F4F9F4F5F
:02091E0008953A
:100920006115710521F06130710531F0089594B3BE
:100930008095892384BB089594B3892B84BB089543
:10094000CF93DF93EC018881882331F021960E94B8
:0E095000BD0489918111FBCFDF91CF910895F5
:10095E00909885BB0E945C042FEF89EF90E02150A8
:0C096E0080409040E1F700C000000895B8
:10097A00909A85BB0E945C042FEF89EF90E021508A
:0C098A0080409040E1F700C0000008959C
:10099600909881E085BB0E945C048FE19EE40197FC
:0809A600F1F700C00000089504
:1009AE0097B19F7397B927B130E4839FC00111248B
:0609BE00822B87B90895A9
:1009C400EC010E943F050E943E05CE010E944005B5
:0609D400CE010E943C056B
:0E09DA0097B1987F97B997B1892B87B9089587
:0E09E80096B1987F96B996B1892B86B908957D
:0E09F6000E9424050E944B030E945800FDCF72
:0E0A04000E9482036894B1110C9418050895A5
:0E0A120000240A941616170618060906089501
:0E0A200000240A941216130614060506089503
:0E0A2E00E894BB2766277727CB0197F9089538
:0C0A3C0097F99F6780E870E060E0089583
:0A0A480087E087BB88EF88BB0895A4
:080A52000E94DD010C947F04F9
:080A5A000E944C020C947F0481
:060A62009FEF80EC0895F7
:040A68000C940000EA
:040A6C00369A089519
:040A7000379A089514
:040A740086B30895A8
:040A78000E94560082
:020A7C000895DB
:020A7E000895D9
:020A80000895D7
:0B0A820054454D50203A200020430056
:00000001FF
